{"contracts/CoreLoanPlatform.sol":{"CoreLoanPlatform":{"abi":[{"inputs":[],"name":"BORROWABLE_RATIO","outputs":[{"internalType":"uint256","name":"","type":"uint256"}],"stateMutability":"view","type":"function"},{"inputs":[],"name":"BTC","outputs":[{"internalType":"contract IERC20","name":"","type":"address"}],"stateMutability":"view","type":"function"},{"inputs":[],"name":"COLLATERAL_RATIO","outputs":[{"internalType":"uint256","name":"","type":"uint256"}],"stateMutability":"view","type":"function"},{"inputs":[],"name":"INTEREST_RATE","outputs":[{"internalType":"uint256","name":"","type":"uint256"}],"stateMutability":"view","type":"function"},{"inputs":[],"name":"LOAN_DURATION","outputs":[{"internalType":"uint256","name":"","type":"uint256"}],"stateMutability":"view","type":"function"},{"inputs":[],"name":"USD","outputs":[{"internalType":"contract IERC20","name":"","type":"address"}],"stateMutability":"view","type":"function"},{"inputs":[{"internalType":"uint256","name":"amount","type":"uint256"}],"name":"borrowBTC","outputs":[],"stateMutability":"nonpayable","type":"function"},{"inputs":[{"internalType":"address","name":"user","type":"address"}],"name":"calculateInterest","outputs":[{"internalType":"uint256","name":"","type":"uint256"}],"stateMutability":"view","type":"function"},{"inputs":[{"internalType":"uint256","name":"amount","type":"uint256"}],"name":"depositBTC","outputs":[],"stateMutability":"nonpayable","type":"function"},{"inputs":[{"internalType":"uint256","name":"amount","type":"uint256"}],"name":"depositCollateral","outputs":[],"stateMutability":"nonpayable","type":"function"},{"inputs":[{"internalType":"address","name":"user","type":"address"}],"name":"getBorrowableAmount","outputs":[{"internalType":"uint256","name":"","type":"uint256"}],"stateMutability":"view","type":"function"},{"inputs":[],"name":"getCurrentApy","outputs":[{"internalType":"uint256","name":"","type":"uint256"}],"stateMutability":"pure","type":"function"},{"inputs":[{"internalType":"address","name":"lender","type":"address"}],"name":"getLenderBalance","outputs":[{"internalType":"uint256","name":"","type":"uint256"}],"stateMutability":"view","type":"function"},{"inputs":[{"internalType":"address","name":"borrower","type":"address"}],"name":"getLoanDetails","outputs":[{"components":[{"internalType":"uint256","name":"amount","type":"uint256"},{"internalType":"uint256","name":"collateral","type":"uint256"},{"internalType":"uint256","name":"timestamp","type":"uint256"},{"internalType":"uint256","name":"active","type":"uint256"}],"internalType":"struct CoreLoanPlatform.Loan","name":"","type":"tuple"}],"stateMutability":"view","type":"function"},{"inputs":[],"name":"getTotalBorrowed","outputs":[{"internalType":"uint256","name":"","type":"uint256"}],"stateMutability":"view","type":"function"},{"inputs":[],"name":"getTotalStaked","outputs":[{"internalType":"uint256","name":"","type":"uint256"}],"stateMutability":"view","type":"function"},{"inputs":[{"internalType":"address","name":"user","type":"address"}],"name":"getUserCollateral","outputs":[{"internalType":"uint256","name":"","type":"uint256"}],"stateMutability":"view","type":"function"},{"inputs":[{"internalType":"address","name":"","type":"address"}],"name":"lenderBalance","outputs":[{"internalType":"uint256","name":"","type":"uint256"}],"stateMutability":"view","type":"function"},{"inputs":[{"internalType":"address","name":"","type":"address"}],"name":"loans","outputs":[{"internalType":"uint256","name":"amount","type":"uint256"},{"internalType":"uint256","name":"collateral","type":"uint256"},{"internalType":"uint256","name":"timestamp","type":"uint256"},{"internalType":"uint256","name":"active","type":"uint256"}],"stateMutability":"view","type":"function"},{"inputs":[{"internalType":"address","name":"user","type":"address"}],"name":"repayLoan","outputs":[],"stateMutability":"nonpayable","type":"function"},{"inputs":[{"internalType":"address","name":"","type":"address"}],"name":"userCollateral","outputs":[{"internalType":"uint256","name":"","type":"uint256"}],"stateMutability":"view","type":"function"},{"inputs":[{"internalType":"uint256","name":"amount","type":"uint256"}],"name":"withdrawBTC","outputs":[],"stateMutability":"nonpayable","type":"function"},{"inputs":[{"internalType":"uint256","name":"amount","type":"uint256"}],"name":"withdrawCollateral","outputs":[],"stateMutability":"nonpayable","type":"function"}],"evm":{"bytecode":{"linkReferences":{},"object":"60c060405260008055600060015534801561001957600080fd5b5060805160a05161040961003f600039600061022c015260006101c001526104096000f3fe608060405234801561001057600080fd5b506004361061018d5760003560e01c806390b4588b116100e3578063d9e69a051161008c578063e8a7da8e11610066578063e8a7da8e146102e7578063f4925de514610192578063f69f1e4a1461032d57600080fd5b8063d9e69a05146102d7578063e02a4dfd146102df578063e11932cf1461026457600080fd5b8063bad4a01f116100bd578063bad4a01f14610256578063bd09085a14610264578063d1a405641461025657600080fd5b806390b4588b14610256578063a6b6d79814610256578063b6f7132f1461026457600080fd5b80632792949d11610145578063691d1eb31161011f578063691d1eb3146102645780636e35f1241461027857806373b4086b1461028057600080fd5b80632792949d146102275780635b72a33a1461024e5780636112fe2e1461025657600080fd5b8063190ef1e611610176578063190ef1e6146101a85780631bf6c21b146101bb578063275972ca1461020757600080fd5b80630307c4a1146101925780630917e77614610192575b600080fd5b60005b6040519081526020015b60405180910390f35b6101b96101b636600461037d565b50565b005b6101e27f000000000000000000000000000000000000000000000000000000000000000081565b60405173ffffffffffffffffffffffffffffffffffffffff909116815260200161019f565b61019561021536600461037d565b60046020526000908152604090205481565b6101e27f000000000000000000000000000000000000000000000000000000000000000081565b610195600581565b6101b96101b63660046103ba565b61019561027236600461037d565b50600090565b610195605081565b6102b761028e36600461037d565b600260208190526000918252604090912080546001820154928201546003909201549092919084565b60408051948552602085019390935291830152606082015260800161019f565b610195609681565b610195601e81565b6102fa6102f536600461037d565b61034d565b60405161019f91908151815260208083015190820152604080830151908201526060918201519181019190915260800190565b61019561033b36600461037d565b60036020526000908152604090205481565b6103786040518060800160405280600081526020016000815260200160008152602001600081525090565b919050565b60006020828403121561038f57600080fd5b813573ffffffffffffffffffffffffffffffffffffffff811681146103b357600080fd5b9392505050565b6000602082840312156103cc57600080fd5b503591905056fea264697066735822122029171cf6e352bb22862cfdaae896ca9fd339a9bb3319a4e4e43196c986b9522564736f6c63430008180033","opcodes":"PUSH1 0xC0 PUSH1 0x40 MSTORE PUSH1 0x0 DUP1 SSTORE PUSH1 0x0 PUSH1 0x1 SSTORE CALLVALUE DUP1 ISZERO PUSH2 0x19 JUMPI PUSH1 0x0 DUP1 REVERT JUMPDEST POP PUSH1 0x80 MLOAD PUSH1 0xA0 MLOAD PUSH2 0x409 PUSH2 0x3F PUSH1 0x0 CODECOPY PUSH1 0x0 PUSH2 0x22C ADD MSTORE PUSH1 0x0 PUSH2 0x1C0 ADD MSTORE PUSH2 0x409 PUSH1 0x0 RETURN INVALID PUSH1 0x80 PUSH1 0x40 MSTORE CALLVALUE DUP1 ISZERO PUSH2 0x10 JUMPI PUSH1 0x0 DUP1 REVERT JUMPDEST POP PUSH1 0x4 CALLDATASIZE LT PUSH2 0x18D JUMPI PUSH1 0x0 CALLDATALOAD PUSH1 0xE0 SHR DUP1 PUSH4 0x90B4588B GT PUSH2 0xE3 JUMPI DUP1 PUSH4 0xD9E69A05 GT PUSH2 0x8C JUMPI DUP1 PUSH4 0xE8A7DA8E GT PUSH2 0x66 JUMPI DUP1 PUSH4 0xE8A7DA8E EQ PUSH2 0x2E7 JUMPI DUP1 PUSH4 0xF4925DE5 EQ PUSH2 0x192 JUMPI DUP1 PUSH4 0xF69F1E4A EQ PUSH2 0x32D JUMPI PUSH1 0x0 DUP1 REVERT JUMPDEST DUP1 PUSH4 0xD9E69A05 EQ PUSH2 0x2D7 JUMPI DUP1 PUSH4 0xE02A4DFD EQ PUSH2 0x2DF JUMPI DUP1 PUSH4 0xE11932CF EQ PUSH2 0x264 JUMPI PUSH1 0x0 DUP1 REVERT JUMPDEST DUP1 PUSH4 0xBAD4A01F GT PUSH2 0xBD JUMPI DUP1 PUSH4 0xBAD4A01F EQ PUSH2 0x256 JUMPI DUP1 PUSH4 0xBD09085A EQ PUSH2 0x264 JUMPI DUP1 PUSH4 0xD1A40564 EQ PUSH2 0x256 JUMPI PUSH1 0x0 DUP1 REVERT JUMPDEST DUP1 PUSH4 0x90B4588B EQ PUSH2 0x256 JUMPI DUP1 PUSH4 0xA6B6D798 EQ PUSH2 0x256 JUMPI DUP1 PUSH4 0xB6F7132F EQ PUSH2 0x264 JUMPI PUSH1 0x0 DUP1 REVERT JUMPDEST DUP1 PUSH4 0x2792949D GT PUSH2 0x145 JUMPI DUP1 PUSH4 0x691D1EB3 GT PUSH2 0x11F JUMPI DUP1 PUSH4 0x691D1EB3 EQ PUSH2 0x264 JUMPI DUP1 PUSH4 0x6E35F124 EQ PUSH2 0x278 JUMPI DUP1 PUSH4 0x73B4086B EQ PUSH2 0x280 JUMPI PUSH1 0x0 DUP1 REVERT JUMPDEST DUP1 PUSH4 0x2792949D EQ PUSH2 0x227 JUMPI DUP1 PUSH4 0x5B72A33A EQ PUSH2 0x24E JUMPI DUP1 PUSH4 0x6112FE2E EQ PUSH2 0x256 JUMPI PUSH1 0x0 DUP1 REVERT JUMPDEST DUP1 PUSH4 0x190EF1E6 GT PUSH2 0x176 JUMPI DUP1 PUSH4 0x190EF1E6 EQ PUSH2 0x1A8 JUMPI DUP1 PUSH4 0x1BF6C21B EQ PUSH2 0x1BB JUMPI DUP1 PUSH4 0x275972CA EQ PUSH2 0x207 JUMPI PUSH1 0x0 DUP1 REVERT JUMPDEST DUP1 PUSH4 0x307C4A1 EQ PUSH2 0x192 JUMPI DUP1 PUSH4 0x917E776 EQ PUSH2 0x192 JUMPI JUMPDEST PUSH1 0x0 DUP1 REVERT JUMPDEST PUSH1 0x0 JUMPDEST PUSH1 0x40 MLOAD SWAP1 DUP2 MSTORE PUSH1 0x20 ADD JUMPDEST PUSH1 0x40 MLOAD DUP1 SWAP2 SUB SWAP1 RETURN JUMPDEST PUSH2 0x1B9 PUSH2 0x1B6 CALLDATASIZE PUSH1 0x4 PUSH2 0x37D JUMP JUMPDEST POP JUMP JUMPDEST STOP JUMPDEST PUSH2 0x1E2 PUSH32 0x0 DUP2 JUMP JUMPDEST PUSH1 0x40 MLOAD PUSH20 0xFFFFFFFFFFFFFFFFFFFFFFFFFFFFFFFFFFFFFFFF SWAP1 SWAP2 AND DUP2 MSTORE PUSH1 0x20 ADD PUSH2 0x19F JUMP JUMPDEST PUSH2 0x195 PUSH2 0x215 CALLDATASIZE PUSH1 0x4 PUSH2 0x37D JUMP JUMPDEST PUSH1 0x4 PUSH1 0x20 MSTORE PUSH1 0x0 SWAP1 DUP2 MSTORE PUSH1 0x40 SWAP1 KECCAK256 SLOAD DUP2 JUMP JUMPDEST PUSH2 0x1E2 PUSH32 0x0 DUP2 JUMP JUMPDEST PUSH2 0x195 PUSH1 0x5 DUP2 JUMP JUMPDEST PUSH2 0x1B9 PUSH2 0x1B6 CALLDATASIZE PUSH1 0x4 PUSH2 0x3BA JUMP JUMPDEST PUSH2 0x195 PUSH2 0x272 CALLDATASIZE PUSH1 0x4 PUSH2 0x37D JUMP JUMPDEST POP PUSH1 0x0 SWAP1 JUMP JUMPDEST PUSH2 0x195 PUSH1 0x50 DUP2 JUMP JUMPDEST PUSH2 0x2B7 PUSH2 0x28E CALLDATASIZE PUSH1 0x4 PUSH2 0x37D JUMP JUMPDEST PUSH1 0x2 PUSH1 0x20 DUP2 SWAP1 MSTORE PUSH1 0x0 SWAP2 DUP3 MSTORE PUSH1 0x40 SWAP1 SWAP2 KECCAK256 DUP1 SLOAD PUSH1 0x1 DUP3 ADD SLOAD SWAP3 DUP3 ADD SLOAD PUSH1 0x3 SWAP1 SWAP3 ADD SLOAD SWAP1 SWAP3 SWAP2 SWAP1 DUP5 JUMP JUMPDEST PUSH1 0x40 DUP1 MLOAD SWAP5 DUP6 MSTORE PUSH1 0x20 DUP6 ADD SWAP4 SWAP1 SWAP4 MSTORE SWAP2 DUP4 ADD MSTORE PUSH1 0x60 DUP3 ADD MSTORE PUSH1 0x80 ADD PUSH2 0x19F JUMP JUMPDEST PUSH2 0x195 PUSH1 0x96 DUP2 JUMP JUMPDEST PUSH2 0x195 PUSH1 0x1E DUP2 JUMP JUMPDEST PUSH2 0x2FA PUSH2 0x2F5 CALLDATASIZE PUSH1 0x4 PUSH2 0x37D JUMP JUMPDEST PUSH2 0x34D JUMP JUMPDEST PUSH1 0x40 MLOAD PUSH2 0x19F SWAP2 SWAP1 DUP2 MLOAD DUP2 MSTORE PUSH1 0x20 DUP1 DUP4 ADD MLOAD SWAP1 DUP3 ADD MSTORE PUSH1 0x40 DUP1 DUP4 ADD MLOAD SWAP1 DUP3 ADD MSTORE PUSH1 0x60 SWAP2 DUP3 ADD MLOAD SWAP2 DUP2 ADD SWAP2 SWAP1 SWAP2 MSTORE PUSH1 0x80 ADD SWAP1 JUMP JUMPDEST PUSH2 0x195 PUSH2 0x33B CALLDATASIZE PUSH1 0x4 PUSH2 0x37D JUMP JUMPDEST PUSH1 0x3 PUSH1 0x20 MSTORE PUSH1 0x0 SWAP1 DUP2 MSTORE PUSH1 0x40 SWAP1 KECCAK256 SLOAD DUP2 JUMP JUMPDEST PUSH2 0x378 PUSH1 0x40 MLOAD DUP1 PUSH1 0x80 ADD PUSH1 0x40 MSTORE DUP1 PUSH1 0x0 DUP2 MSTORE PUSH1 0x20 ADD PUSH1 0x0 DUP2 MSTORE PUSH1 0x20 ADD PUSH1 0x0 DUP2 MSTORE PUSH1 0x20 ADD PUSH1 0x0 DUP2 MSTORE POP SWAP1 JUMP JUMPDEST SWAP2 SWAP1 POP JUMP JUMPDEST PUSH1 0x0 PUSH1 0x20 DUP3 DUP5 SUB SLT ISZERO PUSH2 0x38F JUMPI PUSH1 0x0 DUP1 REVERT JUMPDEST DUP2 CALLDATALOAD PUSH20 0xFFFFFFFFFFFFFFFFFFFFFFFFFFFFFFFFFFFFFFFF DUP2 AND DUP2 EQ PUSH2 0x3B3 JUMPI PUSH1 0x0 DUP1 REVERT JUMPDEST SWAP4 SWAP3 POP POP POP JUMP JUMPDEST PUSH1 0x0 PUSH1 0x20 DUP3 DUP5 SUB SLT ISZERO PUSH2 0x3CC JUMPI PUSH1 0x0 DUP1 REVERT JUMPDEST POP CALLDATALOAD SWAP2 SWAP1 POP JUMP INVALID LOG2 PUSH5 0x6970667358 0x22 SLT KECCAK256 0x29 OR SHR 0xF6 0xE3 MSTORE 0xBB 0x22 DUP7 0x2C REVERT 0xAA 0xE8 SWAP7 0xCA SWAP16 0xD3 CODECOPY 0xA9 0xBB CALLER NOT LOG4 0xE4 0xE4 BALANCE SWAP7 0xC9 DUP7 0xB9 MSTORE 0x25 PUSH5 0x736F6C6343 STOP ADDMOD XOR STOP CALLER "},"methodIdentifiers":{"BORROWABLE_RATIO()":"6e35f124","BTC()":"2792949d","COLLATERAL_RATIO()":"d9e69a05","INTEREST_RATE()":"5b72a33a","LOAN_DURATION()":"e02a4dfd","USD()":"1bf6c21b","borrowBTC(uint256)":"d1a40564","calculateInterest(address)":"e11932cf","depositBTC(uint256)":"a6b6d798","depositCollateral(uint256)":"bad4a01f","getBorrowableAmount(address)":"691d1eb3","getCurrentApy()":"f4925de5","getLenderBalance(address)":"bd09085a","getLoanDetails(address)":"e8a7da8e","getTotalBorrowed()":"0307c4a1","getTotalStaked()":"0917e776","getUserCollateral(address)":"b6f7132f","lenderBalance(address)":"275972ca","loans(address)":"73b4086b","repayLoan(address)":"190ef1e6","userCollateral(address)":"f69f1e4a","withdrawBTC(uint256)":"90b4588b","withdrawCollateral(uint256)":"6112fe2e"}}}}}