{
  "contracts/CoreLoanPlatform.sol": {
    "CoreLoanPlatform": {
      "abi": [
        {
          "inputs": [],
          "name": "BORROWABLE_RATIO",
          "outputs": [
            {
              "internalType": "uint256",
              "name": "",
              "type": "uint256"
            }
          ],
          "stateMutability": "view",
          "type": "function"
        },
        {
          "inputs": [],
          "name": "COLLATERAL_RATIO",
          "outputs": [
            {
              "internalType": "uint256",
              "name": "",
              "type": "uint256"
            }
          ],
          "stateMutability": "view",
          "type": "function"
        },
        {
          "inputs": [],
          "name": "INTEREST_RATE",
          "outputs": [
            {
              "internalType": "uint256",
              "name": "",
              "type": "uint256"
            }
          ],
          "stateMutability": "view",
          "type": "function"
        },
        {
          "inputs": [],
          "name": "LOAN_DURATION",
          "outputs": [
            {
              "internalType": "uint256",
              "name": "",
              "type": "uint256"
            }
          ],
          "stateMutability": "view",
          "type": "function"
        },
        {
          "inputs": [
            {
              "internalType": "uint256",
              "name": "amount",
              "type": "uint256"
            }
          ],
          "name": "borrowBTC",
          "outputs": [],
          "stateMutability": "nonpayable",
          "type": "function"
        },
        {
          "inputs": [
            {
              "internalType": "address",
              "name": "user",
              "type": "address"
            }
          ],
          "name": "calculateInterest",
          "outputs": [
            {
              "internalType": "uint256",
              "name": "",
              "type": "uint256"
            }
          ],
          "stateMutability": "view",
          "type": "function"
        },
        {
          "inputs": [
            {
              "internalType": "uint256",
              "name": "amount",
              "type": "uint256"
            }
          ],
          "name": "depositBTC",
          "outputs": [],
          "stateMutability": "nonpayable",
          "type": "function"
        },
        {
          "inputs": [
            {
              "internalType": "uint256",
              "name": "amount",
              "type": "uint256"
            }
          ],
          "name": "depositCollateral",
          "outputs": [],
          "stateMutability": "nonpayable",
          "type": "function"
        },
        {
          "inputs": [
            {
              "internalType": "address",
              "name": "user",
              "type": "address"
            }
          ],
          "name": "getBorrowableAmount",
          "outputs": [
            {
              "internalType": "uint256",
              "name": "",
              "type": "uint256"
            }
          ],
          "stateMutability": "view",
          "type": "function"
        },
        {
          "inputs": [],
          "name": "getCurrentApy",
          "outputs": [
            {
              "internalType": "uint256",
              "name": "",
              "type": "uint256"
            }
          ],
          "stateMutability": "pure",
          "type": "function"
        },
        {
          "inputs": [
            {
              "internalType": "address",
              "name": "lender",
              "type": "address"
            }
          ],
          "name": "getLenderBalance",
          "outputs": [
            {
              "internalType": "uint256",
              "name": "",
              "type": "uint256"
            }
          ],
          "stateMutability": "view",
          "type": "function"
        },
        {
          "inputs": [
            {
              "internalType": "address",
              "name": "borrower",
              "type": "address"
            }
          ],
          "name": "getLoanDetails",
          "outputs": [
            {
              "components": [
                {
                  "internalType": "uint256",
                  "name": "amount",
                  "type": "uint256"
                },
                {
                  "internalType": "uint256",
                  "name": "collateral",
                  "type": "uint256"
                },
                {
                  "internalType": "uint256",
                  "name": "timestamp",
                  "type": "uint256"
                },
                {
                  "internalType": "uint256",
                  "name": "active",
                  "type": "uint256"
                }
              ],
              "internalType": "struct CoreLoanPlatform.Loan",
              "name": "",
              "type": "tuple"
            }
          ],
          "stateMutability": "view",
          "type": "function"
        },
        {
          "inputs": [],
          "name": "getTotalBorrowed",
          "outputs": [
            {
              "internalType": "uint256",
              "name": "",
              "type": "uint256"
            }
          ],
          "stateMutability": "view",
          "type": "function"
        },
        {
          "inputs": [],
          "name": "getTotalStaked",
          "outputs": [
            {
              "internalType": "uint256",
              "name": "",
              "type": "uint256"
            }
          ],
          "stateMutability": "view",
          "type": "function"
        },
        {
          "inputs": [
            {
              "internalType": "address",
              "name": "user",
              "type": "address"
            }
          ],
          "name": "getUserCollateral",
          "outputs": [
            {
              "internalType": "uint256",
              "name": "",
              "type": "uint256"
            }
          ],
          "stateMutability": "view",
          "type": "function"
        },
        {
          "inputs": [
            {
              "internalType": "address",
              "name": "",
              "type": "address"
            }
          ],
          "name": "lenderBalance",
          "outputs": [
            {
              "internalType": "uint256",
              "name": "",
              "type": "uint256"
            }
          ],
          "stateMutability": "view",
          "type": "function"
        },
        {
          "inputs": [
            {
              "internalType": "address",
              "name": "",
              "type": "address"
            }
          ],
          "name": "loans",
          "outputs": [
            {
              "internalType": "uint256",
              "name": "amount",
              "type": "uint256"
            },
            {
              "internalType": "uint256",
              "name": "collateral",
              "type": "uint256"
            },
            {
              "internalType": "uint256",
              "name": "timestamp",
              "type": "uint256"
            },
            {
              "internalType": "uint256",
              "name": "active",
              "type": "uint256"
            }
          ],
          "stateMutability": "view",
          "type": "function"
        },
        {
          "inputs": [
            {
              "internalType": "address",
              "name": "user",
              "type": "address"
            }
          ],
          "name": "repayLoan",
          "outputs": [],
          "stateMutability": "nonpayable",
          "type": "function"
        },
        {
          "inputs": [
            {
              "internalType": "address",
              "name": "",
              "type": "address"
            }
          ],
          "name": "userCollateral",
          "outputs": [
            {
              "internalType": "uint256",
              "name": "",
              "type": "uint256"
            }
          ],
          "stateMutability": "view",
          "type": "function"
        },
        {
          "inputs": [
            {
              "internalType": "uint256",
              "name": "amount",
              "type": "uint256"
            }
          ],
          "name": "withdrawBTC",
          "outputs": [],
          "stateMutability": "nonpayable",
          "type": "function"
        },
        {
          "inputs": [
            {
              "internalType": "uint256",
              "name": "amount",
              "type": "uint256"
            }
          ],
          "name": "withdrawCollateral",
          "outputs": [],
          "stateMutability": "nonpayable",
          "type": "function"
        }
      ],
      "evm": {
        "bytecode": {
          "linkReferences": {},
          "object": "608060405260008055600060015534801561001957600080fd5b50610380806100296000396000f3fe608060405234801561001057600080fd5b50600436106101775760003560e01c8063a6b6d798116100d8578063d9e69a051161008c578063e8a7da8e11610066578063e8a7da8e1461025e578063f4925de51461017c578063f69f1e4a146102a457600080fd5b8063d9e69a051461024e578063e02a4dfd14610256578063e11932cf146101db57600080fd5b8063bad4a01f116100bd578063bad4a01f146101cd578063bd09085a146101db578063d1a40564146101cd57600080fd5b8063a6b6d798146101cd578063b6f7132f146101db57600080fd5b80636112fe2e1161012f5780636e35f124116101145780636e35f124146101ef57806373b4086b146101f757806390b4588b146101cd57600080fd5b80636112fe2e146101cd578063691d1eb3146101db57600080fd5b8063190ef1e611610160578063190ef1e614610192578063275972ca146101a55780635b72a33a146101c557600080fd5b80630307c4a11461017c5780630917e7761461017c575b600080fd5b60005b6040519081526020015b60405180910390f35b6101a36101a03660046102f4565b50565b005b61017f6101b33660046102f4565b60046020526000908152604090205481565b61017f600581565b6101a36101a0366004610331565b61017f6101e93660046102f4565b50600090565b61017f605081565b61022e6102053660046102f4565b600260208190526000918252604090912080546001820154928201546003909201549092919084565b604080519485526020850193909352918301526060820152608001610189565b61017f609681565b61017f601e81565b61027161026c3660046102f4565b6102c4565b60405161018991908151815260208083015190820152604080830151908201526060918201519181019190915260800190565b61017f6102b23660046102f4565b60036020526000908152604090205481565b6102ef6040518060800160405280600081526020016000815260200160008152602001600081525090565b919050565b60006020828403121561030657600080fd5b813573ffffffffffffffffffffffffffffffffffffffff8116811461032a57600080fd5b9392505050565b60006020828403121561034357600080fd5b503591905056fea26469706673582212201a60e454f8fcbadaa33a9ad3268dd549a6bb115c78c2fbf44825fa8aeaf7c48d64736f6c63430008180033",
          "opcodes": "PUSH1 0x80 PUSH1 0x40 MSTORE PUSH1 0x0 DUP1 SSTORE PUSH1 0x0 PUSH1 0x1 SSTORE CALLVALUE DUP1 ISZERO PUSH2 0x19 JUMPI PUSH1 0x0 DUP1 REVERT JUMPDEST POP PUSH2 0x380 DUP1 PUSH2 0x29 PUSH1 0x0 CODECOPY PUSH1 0x0 RETURN INVALID PUSH1 0x80 PUSH1 0x40 MSTORE CALLVALUE DUP1 ISZERO PUSH2 0x10 JUMPI PUSH1 0x0 DUP1 REVERT JUMPDEST POP PUSH1 0x4 CALLDATASIZE LT PUSH2 0x177 JUMPI PUSH1 0x0 CALLDATALOAD PUSH1 0xE0 SHR DUP1 PUSH4 0xA6B6D798 GT PUSH2 0xD8 JUMPI DUP1 PUSH4 0xD9E69A05 GT PUSH2 0x8C JUMPI DUP1 PUSH4 0xE8A7DA8E GT PUSH2 0x66 JUMPI DUP1 PUSH4 0xE8A7DA8E EQ PUSH2 0x25E JUMPI DUP1 PUSH4 0xF4925DE5 EQ PUSH2 0x17C JUMPI DUP1 PUSH4 0xF69F1E4A EQ PUSH2 0x2A4 JUMPI PUSH1 0x0 DUP1 REVERT JUMPDEST DUP1 PUSH4 0xD9E69A05 EQ PUSH2 0x24E JUMPI DUP1 PUSH4 0xE02A4DFD EQ PUSH2 0x256 JUMPI DUP1 PUSH4 0xE11932CF EQ PUSH2 0x1DB JUMPI PUSH1 0x0 DUP1 REVERT JUMPDEST DUP1 PUSH4 0xBAD4A01F GT PUSH2 0xBD JUMPI DUP1 PUSH4 0xBAD4A01F EQ PUSH2 0x1CD JUMPI DUP1 PUSH4 0xBD09085A EQ PUSH2 0x1DB JUMPI DUP1 PUSH4 0xD1A40564 EQ PUSH2 0x1CD JUMPI PUSH1 0x0 DUP1 REVERT JUMPDEST DUP1 PUSH4 0xA6B6D798 EQ PUSH2 0x1CD JUMPI DUP1 PUSH4 0xB6F7132F EQ PUSH2 0x1DB JUMPI PUSH1 0x0 DUP1 REVERT JUMPDEST DUP1 PUSH4 0x6112FE2E GT PUSH2 0x12F JUMPI DUP1 PUSH4 0x6E35F124 GT PUSH2 0x114 JUMPI DUP1 PUSH4 0x6E35F124 EQ PUSH2 0x1EF JUMPI DUP1 PUSH4 0x73B4086B EQ PUSH2 0x1F7 JUMPI DUP1 PUSH4 0x90B4588B EQ PUSH2 0x1CD JUMPI PUSH1 0x0 DUP1 REVERT JUMPDEST DUP1 PUSH4 0x6112FE2E EQ PUSH2 0x1CD JUMPI DUP1 PUSH4 0x691D1EB3 EQ PUSH2 0x1DB JUMPI PUSH1 0x0 DUP1 REVERT JUMPDEST DUP1 PUSH4 0x190EF1E6 GT PUSH2 0x160 JUMPI DUP1 PUSH4 0x190EF1E6 EQ PUSH2 0x192 JUMPI DUP1 PUSH4 0x275972CA EQ PUSH2 0x1A5 JUMPI DUP1 PUSH4 0x5B72A33A EQ PUSH2 0x1C5 JUMPI PUSH1 0x0 DUP1 REVERT JUMPDEST DUP1 PUSH4 0x307C4A1 EQ PUSH2 0x17C JUMPI DUP1 PUSH4 0x917E776 EQ PUSH2 0x17C JUMPI JUMPDEST PUSH1 0x0 DUP1 REVERT JUMPDEST PUSH1 0x0 JUMPDEST PUSH1 0x40 MLOAD SWAP1 DUP2 MSTORE PUSH1 0x20 ADD JUMPDEST PUSH1 0x40 MLOAD DUP1 SWAP2 SUB SWAP1 RETURN JUMPDEST PUSH2 0x1A3 PUSH2 0x1A0 CALLDATASIZE PUSH1 0x4 PUSH2 0x2F4 JUMP JUMPDEST POP JUMP JUMPDEST STOP JUMPDEST PUSH2 0x17F PUSH2 0x1B3 CALLDATASIZE PUSH1 0x4 PUSH2 0x2F4 JUMP JUMPDEST PUSH1 0x4 PUSH1 0x20 MSTORE PUSH1 0x0 SWAP1 DUP2 MSTORE PUSH1 0x40 SWAP1 KECCAK256 SLOAD DUP2 JUMP JUMPDEST PUSH2 0x17F PUSH1 0x5 DUP2 JUMP JUMPDEST PUSH2 0x1A3 PUSH2 0x1A0 CALLDATASIZE PUSH1 0x4 PUSH2 0x331 JUMP JUMPDEST PUSH2 0x17F PUSH2 0x1E9 CALLDATASIZE PUSH1 0x4 PUSH2 0x2F4 JUMP JUMPDEST POP PUSH1 0x0 SWAP1 JUMP JUMPDEST PUSH2 0x17F PUSH1 0x50 DUP2 JUMP JUMPDEST PUSH2 0x22E PUSH2 0x205 CALLDATASIZE PUSH1 0x4 PUSH2 0x2F4 JUMP JUMPDEST PUSH1 0x2 PUSH1 0x20 DUP2 SWAP1 MSTORE PUSH1 0x0 SWAP2 DUP3 MSTORE PUSH1 0x40 SWAP1 SWAP2 KECCAK256 DUP1 SLOAD PUSH1 0x1 DUP3 ADD SLOAD SWAP3 DUP3 ADD SLOAD PUSH1 0x3 SWAP1 SWAP3 ADD SLOAD SWAP1 SWAP3 SWAP2 SWAP1 DUP5 JUMP JUMPDEST PUSH1 0x40 DUP1 MLOAD SWAP5 DUP6 MSTORE PUSH1 0x20 DUP6 ADD SWAP4 SWAP1 SWAP4 MSTORE SWAP2 DUP4 ADD MSTORE PUSH1 0x60 DUP3 ADD MSTORE PUSH1 0x80 ADD PUSH2 0x189 JUMP JUMPDEST PUSH2 0x17F PUSH1 0x96 DUP2 JUMP JUMPDEST PUSH2 0x17F PUSH1 0x1E DUP2 JUMP JUMPDEST PUSH2 0x271 PUSH2 0x26C CALLDATASIZE PUSH1 0x4 PUSH2 0x2F4 JUMP JUMPDEST PUSH2 0x2C4 JUMP JUMPDEST PUSH1 0x40 MLOAD PUSH2 0x189 SWAP2 SWAP1 DUP2 MLOAD DUP2 MSTORE PUSH1 0x20 DUP1 DUP4 ADD MLOAD SWAP1 DUP3 ADD MSTORE PUSH1 0x40 DUP1 DUP4 ADD MLOAD SWAP1 DUP3 ADD MSTORE PUSH1 0x60 SWAP2 DUP3 ADD MLOAD SWAP2 DUP2 ADD SWAP2 SWAP1 SWAP2 MSTORE PUSH1 0x80 ADD SWAP1 JUMP JUMPDEST PUSH2 0x17F PUSH2 0x2B2 CALLDATASIZE PUSH1 0x4 PUSH2 0x2F4 JUMP JUMPDEST PUSH1 0x3 PUSH1 0x20 MSTORE PUSH1 0x0 SWAP1 DUP2 MSTORE PUSH1 0x40 SWAP1 KECCAK256 SLOAD DUP2 JUMP JUMPDEST PUSH2 0x2EF PUSH1 0x40 MLOAD DUP1 PUSH1 0x80 ADD PUSH1 0x40 MSTORE DUP1 PUSH1 0x0 DUP2 MSTORE PUSH1 0x20 ADD PUSH1 0x0 DUP2 MSTORE PUSH1 0x20 ADD PUSH1 0x0 DUP2 MSTORE PUSH1 0x20 ADD PUSH1 0x0 DUP2 MSTORE POP SWAP1 JUMP JUMPDEST SWAP2 SWAP1 POP JUMP JUMPDEST PUSH1 0x0 PUSH1 0x20 DUP3 DUP5 SUB SLT ISZERO PUSH2 0x306 JUMPI PUSH1 0x0 DUP1 REVERT JUMPDEST DUP2 CALLDATALOAD PUSH20 0xFFFFFFFFFFFFFFFFFFFFFFFFFFFFFFFFFFFFFFFF DUP2 AND DUP2 EQ PUSH2 0x32A JUMPI PUSH1 0x0 DUP1 REVERT JUMPDEST SWAP4 SWAP3 POP POP POP JUMP JUMPDEST PUSH1 0x0 PUSH1 0x20 DUP3 DUP5 SUB SLT ISZERO PUSH2 0x343 JUMPI PUSH1 0x0 DUP1 REVERT JUMPDEST POP CALLDATALOAD SWAP2 SWAP1 POP JUMP INVALID LOG2 PUSH5 0x6970667358 0x22 SLT KECCAK256 BYTE PUSH1 0xE4 SLOAD 0xF8 0xFC 0xBA 0xDA LOG3 GASPRICE SWAP11 0xD3 0x26 DUP14 0xD5 BLOBHASH 0xA6 0xBB GT TLOAD PUSH25 0xC2FBF44825FA8AEAF7C48D64736F6C63430008180033000000 "
        },
        "methodIdentifiers": {
          "BORROWABLE_RATIO()": "6e35f124",
          "COLLATERAL_RATIO()": "d9e69a05",
          "INTEREST_RATE()": "5b72a33a",
          "LOAN_DURATION()": "e02a4dfd",
          "borrowBTC(uint256)": "d1a40564",
          "calculateInterest(address)": "e11932cf",
          "depositBTC(uint256)": "a6b6d798",
          "depositCollateral(uint256)": "bad4a01f",
          "getBorrowableAmount(address)": "691d1eb3",
          "getCurrentApy()": "f4925de5",
          "getLenderBalance(address)": "bd09085a",
          "getLoanDetails(address)": "e8a7da8e",
          "getTotalBorrowed()": "0307c4a1",
          "getTotalStaked()": "0917e776",
          "getUserCollateral(address)": "b6f7132f",
          "lenderBalance(address)": "275972ca",
          "loans(address)": "73b4086b",
          "repayLoan(address)": "190ef1e6",
          "userCollateral(address)": "f69f1e4a",
          "withdrawBTC(uint256)": "90b4588b",
          "withdrawCollateral(uint256)": "6112fe2e"
        }
      }
    }
  }
}