{
  "contracts/CoreLoanPlatform.sol": {
    "CoreLoanPlatform": {
      "abi": [
        {
          "inputs": [],
          "name": "BORROWABLE_RATIO",
          "outputs": [
            {
              "internalType": "uint256",
              "name": "",
              "type": "uint256"
            }
          ],
          "stateMutability": "view",
          "type": "function"
        },
        {
          "inputs": [],
          "name": "COLLATERAL_RATIO",
          "outputs": [
            {
              "internalType": "uint256",
              "name": "",
              "type": "uint256"
            }
          ],
          "stateMutability": "view",
          "type": "function"
        },
        {
          "inputs": [],
          "name": "INTEREST_RATE",
          "outputs": [
            {
              "internalType": "uint256",
              "name": "",
              "type": "uint256"
            }
          ],
          "stateMutability": "view",
          "type": "function"
        },
        {
          "inputs": [],
          "name": "LOAN_DURATION",
          "outputs": [
            {
              "internalType": "uint256",
              "name": "",
              "type": "uint256"
            }
          ],
          "stateMutability": "view",
          "type": "function"
        }
      ],
      "evm": {
        "bytecode": {
          "linkReferences": {},
          "object": "608060405260008055600060015534801561001957600080fd5b5060af806100286000396000f3fe6080604052348015600f57600080fd5b506004361060465760003560e01c80635b72a33a14604b5780636e35f124146064578063d9e69a0514606b578063e02a4dfd146072575b600080fd5b6052600581565b60405190815260200160405180910390f35b6052605081565b6052609681565b6052601e8156fea2646970667358221220f5fd4395b06990abd424a7eeb0ef5b4aafce31b506a0ed19f706809bca430ccd64736f6c63430008180033",
          "opcodes": "PUSH1 0x80 PUSH1 0x40 MSTORE PUSH1 0x0 DUP1 SSTORE PUSH1 0x0 PUSH1 0x1 SSTORE CALLVALUE DUP1 ISZERO PUSH2 0x19 JUMPI PUSH1 0x0 DUP1 REVERT JUMPDEST POP PUSH1 0xAF DUP1 PUSH2 0x28 PUSH1 0x0 CODECOPY PUSH1 0x0 RETURN INVALID PUSH1 0x80 PUSH1 0x40 MSTORE CALLVALUE DUP1 ISZERO PUSH1 0xF JUMPI PUSH1 0x0 DUP1 REVERT JUMPDEST POP PUSH1 0x4 CALLDATASIZE LT PUSH1 0x46 JUMPI PUSH1 0x0 CALLDATALOAD PUSH1 0xE0 SHR DUP1 PUSH4 0x5B72A33A EQ PUSH1 0x4B JUMPI DUP1 PUSH4 0x6E35F124 EQ PUSH1 0x64 JUMPI DUP1 PUSH4 0xD9E69A05 EQ PUSH1 0x6B JUMPI DUP1 PUSH4 0xE02A4DFD EQ PUSH1 0x72 JUMPI JUMPDEST PUSH1 0x0 DUP1 REVERT JUMPDEST PUSH1 0x52 PUSH1 0x5 DUP2 JUMP JUMPDEST PUSH1 0x40 MLOAD SWAP1 DUP2 MSTORE PUSH1 0x20 ADD PUSH1 0x40 MLOAD DUP1 SWAP2 SUB SWAP1 RETURN JUMPDEST PUSH1 0x52 PUSH1 0x50 DUP2 JUMP JUMPDEST PUSH1 0x52 PUSH1 0x96 DUP2 JUMP JUMPDEST PUSH1 0x52 PUSH1 0x1E DUP2 JUMP INVALID LOG2 PUSH5 0x6970667358 0x22 SLT KECCAK256 CREATE2 REVERT NUMBER SWAP6 0xB0 PUSH10 0x90ABD424A7EEB0EF5B4A 0xAF 0xCE BALANCE 0xB5 MOD LOG0 0xED NOT 0xF7 MOD DUP1 SWAP12 0xCA NUMBER 0xC 0xCD PUSH5 0x736F6C6343 STOP ADDMOD XOR STOP CALLER "
        },
        "methodIdentifiers": {
          "BORROWABLE_RATIO()": "6e35f124",
          "COLLATERAL_RATIO()": "d9e69a05",
          "INTEREST_RATE()": "5b72a33a",
          "LOAN_DURATION()": "e02a4dfd"
        }
      }
    }
  }
}